:080000004E03040000000000A3
:0400AC002C02000022
:10040000851F7800830020006810E100070032009B
:10041000930020007010E10004003200A3002000CF
:100420007810E10001003200B30020006002AE004D
:10043000FEFF370068C2BF008051780060C2A9008B
:100440008240B100F9FF3E0004007800850078008A
:10045000CF027800000006004200F8003600F800E5
:100460003200F800801F7800200020000C000900F6
:10047000B01F78008200200000020200000000008F
:1004800003E8B7000268EC0002C8BF000000FB00F0
:100490001080B200070032003080B2001B00320032
:1004A0001080B2003F0032007080B2006100320064
:1004B0007100370008C8BF0000E8B70000C8BF00DF
:1004C00068E2B70010C0B30000E8B70005C8BF007D
:1004D0000000FB006100E10004003A0003C8BF0017
:1004E0000BE8B700820204000000000005C8BF004E
:1004F0000000FB006200E10002003A0003C8BF00F8
:100500000CE8B7003C0304000000000003C8BF0073
:1005100005E8B70005C8BF000000FB006100E1006E
:1005200008003A0009C8BF0000E8B70000C8BF00D3
:1005300068E2B70010C0B30000E8B700CE020400C4
:100540000000000005C8BF000000FB006200E100E1
:1005500008003A000AC8BF0000E8B70000C8BF00A2
:1005600068E2B70010C0B30000E8B700CE02040094
:100570000000000005C8BF000000FB006300E100B0
:1005800006003A0006C8BF0000E8B70000C8BF0078
:1005900068E2B70010C0B30000E8B7003C030400F5
:1005A0000000000005C8BF000000FB006100E10082
:1005B00008003A000DC8BF0000E8B70000C8BF003F
:1005C00068E2B70010C0B30000E8B70016030400EB
:1005D0000000000005C8BF000000FB006200E10051
:1005E00008003A0001C8BF0000E8B70000C8BF001B
:1005F00068E2B70010C0B30000E8B70016030400BB
:100600000000000005C8BF000000FB006300E1001F
:1006100006003A0001C8BF0000E8B70000C8BF00EC
:1006200068E2B70010C0B30000E8B7003C03040064
:100630000000000005C8BF000000FB006100E100F1
:1006400004003A0003C8BF000FE8B70036030400F7
:100650000000000005C8BF000000FB006200E100D0
:1006600002003A0003C8BF000EE8B7000268EF00BE
:100670003C030400000000008820A900A001200025
:100680000C0009004F1078004F0078003200F9008C
:100690003600F9004200F900004006000F782700FC
:1006A000F07F270020A0B7000000000081E0A80034
:1006B00004032000343A88004427EF000E00FC00B9
:1006C000301020003174200082072000A309200090
:1006D000824878008348780043E7B7004800DE008E
:1006E00021742000620420007305200082487800F5
:1006F00083487800804878000068EF0061E2A90034
:10070000E502A900E4E2A800E522A800E4C2A800EE
:1007100060C2A9006322A9006822EF0074092100C9
:100720001413880061E2A800E522A900E922A800CC
:100730000168EF000268EF0010C0B30006E8B700E0
:100740000768EF0070C7B30008E8B7002CA3EF00FC
:100750002AA3EF006CA3EF006AA3EF009820A80083
:1007600081E0A9004220EF0081E0A800E522A80076
:100770000968EF000A68EF0010C0B3000DE8B70089
:0C078000C0030400000000000040FE0068
:0200000401F009
:10000000CF0000FFCF0000FF070000FF800000FFCF
:10001000410000FF5F0000FFE70000FFC30000FF9A
:00000001FF
;DSPIC33FJ256GP710A
;CRC=63A9  CREATED="17-Oct-17 16:23"
