:080000000807040000000000E5
:0400AC002C02000022
:10040000851F7800830020006810E100070032009B
:10041000930020007010E10004003200A3002000CF
:100420007810E10001003200B30020006002AE004D
:10043000FEFF370068C2BF008051780060C2A9008B
:100440008240B100F9FF3E0004007800850078008A
:10045000CF027800000006004200F8003600F800E5
:100460003200F800801F7800200020000C000900F6
:10047000B01F78008200200000020200000000008F
:100480000BE8B7000A68EC000AC8BF000000FB00D8
:100490001080B200070032003080B200210032002C
:1004A0001080B200440032007080B200740032004C
:1004B0009B00370010C8BF0000E8B70000C8BF00AD
:1004C00068E2B70010C0B30000E8B7000DC8BF0075
:1004D0000000FB006100E10007003A000068EF0047
:1004E00000C8BF0068E2B70010C0B30000E8B70062
:1004F0008E020400000000000DC8BF000000FB00D9
:100500006200E10005003A000068EF0000C8BF008B
:1005100068E2B70010C0B30000E8B700960304001B
:10052000000000000BC8BF000DE8B7000DC8BF00F9
:100530000000FB006100E10007003A000068EF00E6
:1005400000C8BF0068E2B70010C0B30000E8B70001
:10055000D8020400000000000DC8BF000000FB002E
:100560006200E10008003A0030C0B30000E8B700C4
:1005700000C8BF0068E2B70010C0B30000E8B700D1
:10058000D8020400000000000DC8BF000000FB00FE
:100590006300E10006003A000EC8BF0000E8B700A3
:1005A00000C8BF0068E2B70010C0B30000E8B700A1
:1005B00096030400000000000DC8BF000000FB000F
:1005C0006100E10007003A000068EF0000C8BF00CA
:1005D00068E2B70010C0B30000E8B7003C030400B5
:1005E000000000000DC8BF000000FB006200E10039
:1005F0000A003A000BC8BF0011E8B70015C8BF00D9
:1006000000E8B70000C8BF0068E2B70010C0B30040
:1006100000E8B7003C030400000000000DC8BF0064
:100620000000FB006300E10007003A000068EF00F3
:1006300000C8BF0068E2B70010C0B30000E8B70010
:100640003C030400000000000DC8BF000000FB00D8
:100650006700E10008003A000BC8BF0012E8B700CD
:1006600016C8BF0000E8B70000C8BF0068E2B700C6
:1006700010C0B30000E8B7009603040000000000BB
:100680000A68EF000DC8BF000000FB006100E10038
:1006900007003A000068EF0000C8BF0068E2B7003A
:1006A00010C0B30000E8B7008C0304000000000095
:1006B0000DC8BF000000FB006200E1000A003A0024
:1006C0000BC8BF0013E8B70017C8BF0000E8B700A9
:1006D00000C8BF0068E2B70010C0B30000E8B70070
:1006E0008C030400000000000DC8BF000000FB00E8
:1006F0006700E10008003A000BC8BF0014E8B7002B
:1007000018C8BF0000E8B70000C8BF0068E2B70023
:1007100010C0B30000E8B70096030400000000001A
:100720000A68EF0096030400000000008820A9007A
:10073000A00120000C0009004F1078004F00780045
:100740003200F9003600F9004200F90000400600CE
:10075000851F7800C500200004000900B51F78003F
:100760000002780081027800830378000203780099
:100770004200A9004220A9008180D2000180FD0032
:10078000F10FB2000100E0004B0032004200A9006E
:100790004220A9008381D2000380FD00F30FB20044
:1007A0000300E000440032000080FB0001C0410073
:1007B00004003100F007B1003F0032003E00390074
:1007C000020037001048B0003B00310007856A0086
:1007D0004200A9004220A900F50FB2000570A00058
:1007E0004200A900F70FB2000770A0000621B80070
:1007F000062CB80083014C00890078004200AF004D
:100800008100E8004200A900043CB80083014C00CC
:1008100081804C00072CB80081004C000000E800EB
:100820000100E0004220AF00010037000300370064
:100830000300E0004220AF000500370001F0A700F0
:10084000030037008381D2008180D2000000E900DC
:10085000010178004200A9000370A60009003700DA
:1008600007F02F00878161000310B000600149008C
:100870000200E00003003A000300E00001003A003B
:100880000000E8000080FD004200A9004220A9000D
:100890008080D3000AF0A70001F0A00002F0A100C0
:1008A0000280FD00814069000380FD000341780063
:1008B0000200780003003700000020000100200043
:1008C000000037004501200004000900CF12780025
:1008D000CF02780000000600851F7800C5002000C8
:1008E00003000900B51F780000027800810278003B
:1008F00002037800830378000000EB008000EB0027
:100900000001EB008001EB000800A10007F0A60049
:10091000080037000800A0008783EA000683EA0089
:100920008582EA000402EA00E0824A0060034B008C
:10093000E0834B008504720002003A0087047300D4
:1009400015003200394720000340A7000B00370094
:100950004200A9000482D2008582D2000683D20020
:100960008783D2000080D2008180D2000281D20031
:100970008381D2008904E900F3FF3A00C44CDD0012
:100980004200A90009F0A1000340A10083816C008E
:100990000800A70003F0A0002501200003000900C3
:1009A000CF127800CF02780000000600881F780080
:1009B0002801200004000900B81F78008005EB0022
:1009C0006066B8000304780087047800FA7F20008E
:1009D0004200A9004220A90044C4DE0008046500CA
:1009E0000800E000710032004200A9004220A90086
:1009F000C4CCDE00890465000900E0006B00320011
:100A00000884440009B0A70004003700F83FB10093
:100A10006600320065003900030037001A402000EC
:100A20008542450061003100878669004200A900C7
:100A30004220A900F300B2000340A000F700B2007A
:100A40000740A000881F78000124B800002DB800DE
:100A50000A0544008B854C000C80B0000224B800CD
:100A60008B0544000C864C00012CB8000005EB00FF
:100A70008B0544000C864C000A80B0000034B8009E
:100A80008B0544000C864C000A80B0008005EB000A
:100A90000324B8000C0644000A854C000B80B0000B
:100AA000022CB8000C0644000A854C000B80B000F4
:100AB0000134B8000C0644000A854C000B80B000DD
:100AC000003CB8000C0644000A854C000B80B000C6
:100AD0000C0078000006EB00032CB8000A05440067
:100AE0008B854C000C80B0000234B8000A0544002D
:100AF0008B854C000C80B0000334B8008B0544009B
:100B00000C864C00013CB8000A0544008B854C0063
:100B10000C80B000023CB8008B0544000C864C00F1
:100B2000033CB8000C0644008A0078000B017800F2
:100B30008C017800540020004200A9008381D3007A
:100B40000281D3008180D3000080D3000402E90039
:100B5000F9FF3A004F0478000804E8000103700030
:100B60000100320002003700030371000800320068
:100B70000340A700060037004200A9000080D20011
:100B80008180D2000281D2008381D2000804E90072
:100B90004444DD0003F0A1000DF0A70003F0A00025
:100BA0000340A10083016C00030037006000B8001F
:100BB0006001B80000003700A8012000040009000F
:100BC0004F1478004F04780000000600851F78005D
:100BD000C500200005000900B51F78000304780057
:100BE0008203780001037800800278008304780093
:100BF0003B472000C499DE00FA7F20008301650096
:100C000083855500F801B2000840A0000000EB0009
:100C10008000EB000001EB008001EB004200A90026
:100C20000884D3008783D3000683D3008582D30052
:100C30008381D3000281D3008180D3000080D30060
:100C40008B05E900F5FF3A0009F0A600090037001E
:100C50000080EA008180EA000281EA008381EA00E4
:100C60000000E8000180B0000280B0000380B00006
:100C7000000037006501200005000900CF12780050
:100C8000CF02780000000600851F7800861F7800DC
:100C9000E10820000000E0001200320000F0A70090
:100CA000040037004200A9000080D2008100E90062
:100CB000FAFF37000180FD004200A9008180D300C7
:100CC00000F0A1000080FD00814068000040B200FB
:100CD00007003700014078000170A0000140B20019
:100CE000030037000000EB008000EB00000037003D
:100CF0004F037800CF02780000000600851F7800BF
:100D0000861F78003408F8002803F9003A28EF001D
:100D1000D44180007420E100140031003A88BF0003
:100D20004100DD00E4832000840240002003A9008C
:100D30002023A8002003AE00FEFF37000418800027
:100D4000840298003A88BF004100DD00E48320005F
:100D50000400400000027800140078003C28B40031
:100D60003A28EC0088060400000000003C88BF0020
:100D700044060200000000008002780001037800B1
:100D800005007800860078003240800043408000F3
:100D9000A80302000000000036A8B700C141880087
:100DA0003C28EF003688BF00C14180004F03780027
:100DB000CF02780000000600000178008101780071
:100DC000014078000080FD0000F0A0008180D2008A
:100DD0000180FD008180FB00E4082000814052007A
:100DE000060032000000E000040032004200A900CA
:100DF0000080D3008100E900FAFF3A0003F0A6006A
:100E0000020037000000EA00000037000000060082
:100E10000F782400F07F240020A0B700000000001D
:100E200081E0A8000068EF0061E2A900E502A900E6
:100E3000E4E2A800E522A800E4C2A80060C2A9007C
:100E40006322A9006822EF00F4092100141388002E
:100E500061E2A800E522A900E922A8000228EF002B
:100E600064CC230024408800D0CC2C00C1D42300C3
:100E70001240800023408000A80302000000000010
:100E800006A8B700414088000168EF000A68EF003B
:100E900020C0B3000EE8B7000F68EF0070C0B300C9
:100EA00010E8B7001168EF001268EF001368EF0058
:100EB0001468EF00F0C0B30015E8B70090C1B300AC
:100EC00016E8B70030C2B30017E8B700D0C2B300CD
:100ED00018E8B7002CA3EF002AA3EF00E522A80032
:100EE00024FE2F00641988002AA3EF002223EF00BC
:100EF00004F0290024198800044E280004198800F1
:100F00001021EF007402200064088800040028000B
:100F10008408880064002000240C88008021EF00F1
:100F200064002000540C88008621EF00640020003B
:100F3000840C88008C21EF0064002000B40C880031
:100F40009221EF009820A80081E0A9004220EF0044
:100F500081E0A80011C8BF000000FB008001EB0089
:100F600000F0A7008081EB00830078000301780087
:100F70006C04020000000000A49929009599290042
:100F80009699290097FD2300D60402000000000076
:100F9000E6050200000000002CA8B7002C08F800AD
:100FA0008001F90012C8BF000000FB008001EB00C7
:100FB00000F0A7008081EB00830078000301780037
:100FC0006C04020000000000A499290095992900F2
:100FD0009699290097FD2300D60402000000000026
:100FE000E6050200000000002EA8B7002E08F80059
:100FF0008601F90013C8BF000000FB008001EB0070
:1010000000F0A7008081EB008300780003017800E6
:101010006C04020000000000A499290095992900A1
:101020009699290097FD2300D604020000000000D5
:10103000E60502000000000030A8B7003008F80004
:101040008C01F90014C8BF000000FB008001EB0018
:1010500000F0A7008081EB00830078000301780096
:101060006C04020000000000A49929009599290051
:101070009699290097FD2300D60402000000000085
:10108000E60502000000000032A8B7003208F800B0
:101090009201F9003428EF007E06020000000000F3
:1010A000DC0602000000000015E8B7002400200064
:1010B000A44188007E06020000000000DC06020059
:1010C0000000000016E8B70034002000A4418800AA
:1010D0007E06020000000000DC06020000000000A6
:1010E00017E8B70044002000A44188007E060200F3
:1010F00000000000DC0602000000000018E8B70055
:0C110000AA070400000000000040FE00F0
:0200000401F009
:10000000CF0000FFCF0000FF070000FF820000FFCD
:10001000C20000FF5F0000FFE70000FFC30000FF19
:00000001FF
;DSPIC33FJ256GP510
;CRC=1ADE  CREATED="18-Jul-19 09:34"
